:040000000CEF00F011
:10000800FACF0FF1FBCF10F1E9CF11F1B6ED02F005
:1000180000EE00F010EE10F016EC00F0000EF86E96
:1000280082EF03F0EE6AE550E150FCE1E250FAE1BC
:020038001200B4
:10030000007E18B6BCD8ECEE38FEFC0001010D6F83
:10031000000E010101010A6F01010D5101010101EE
:1003200008AF01D001D00FD001010101076D01011B
:10033000081FD8B0082B01010D6F010E010101014A
:100340000A6F01010D510101010106AF01D001D079
:100350000BD001010101056D0101061FD8B0062B6C
:10036000010E010101010A1B000E010101010B6FC9
:10037000000E01010C6F0101010108510711D8B4F1
:1003800001D001D047D001010D6F010E0101010123
:10039000096F01010D5109D00101D8900101073702
:1003A0000101083701010101092B0101010108AF19
:1003B00001D001D0F1D70101D89001010B37010123
:1003C0000C3701010101075101010101055D010126
:1003D00001010851010101010659D8A001D001D045
:1003E0000FD001010101075101010101055F010168
:1003F0000101085101010101065B010101010B81AD
:100400000101D89001010833010107330101010105
:10041000092FD1D7010101010A51D8B401D001D06F
:1004200007D0010101010B6D01010C1FD8B00C2B8D
:100430000BC105F10CC106F100D012000101256FBE
:10044000000E01010101226F01012551010101018D
:1004500020AF01D001D00FD0010101011F6D0101BA
:10046000201FD8B0202B0101256F010E01010101D1
:10047000226F01012551010101011EAF01D001D000
:100480000BD0010101011D6D01011E1FD8B01E2BF3
:10049000010E01010101221B000E01010101236F68
:1004A000000E0101246F0101010120511F11D8B478
:1004B00001D001D047D00101256F010E01010101DA
:1004C000216F0101255109D00101D89001011F3789
:1004D0000101203701010101212B0101010120AFA0
:1004E00001D001D0F1D70101D890010123370101DA
:1004F0002437010101011F51010101011D5D0101AD
:1005000001012051010101011E59D8A001D001D0E3
:100510000FD0010101011F51010101011D5F010106
:1005200001012051010101011E5B01010101238133
:100530000101D8900101203301011F3301010101A4
:10054000212FD1D7010101012251D8B401D001D00E
:1005500007D001010101236D0101241FD8B0242B14
:1005600023C11DF124C11EF100D012000600EACF04
:1005700012F1E1CF13F1E2CF14F1D9CF15F1DACFB7
:1005800016F1F3CF17F1F4CF18F1F6CF19F1F7CF39
:100590001AF1F8CF1BF138EC04F041D08A808A823E
:1005A0008A8485EC04F001010E6F01010E510724CD
:1005B000076E000E0820086E012A0150280AD8A4F0
:1005C00001D001D01DD001010E6F000E016E01019E
:1005D0000E51280E010101011F6F000E0101206F55
:1005E00007C01DF108C01EF11EEC02F0010101015F
:1005F0001D51056E000E076E000E086EC1EC03F073
:1006000018D063EC04F08A9014D08A8051EC04F086
:100610008A920FD08A8274EC04F08A940AD0005037
:10062000000ABCE0010AEDE0030AEFE0010AF2E093
:1006300000D0030E006001D001D002D0002A06D005
:1006400001010E6F000E006E01010E511BC1F8FF7B
:100650001AC1F7FF19C1F6FF18C1F4FF17C1F3FF64
:1006600016C1DAFF15C1D9FF14C1E2FF13C1E1FFC2
:1006700012C1EAFF11C1E9FF10C1FBFF0FC1FAFF70
:100680001100010EC26E010101010251080AD8A435
:1006900001D001D007D00101046F220EC06E01010C
:1006A000045106D00101046FA20EC06E0101045175
:1006B0001CD00101046F0E0EC16E0101045121D046
:1006C0000101046F0D0EC16E010104511AD0010128
:1006D000046F0C0EC16E0101045113D00101046FAF
:1006E0000B0EC16E010104510CD001010101035137
:1006F000010ADFE0030AE4E0010AE9E0070AEEE0AC
:1007000000D01200FCEC03F00101006F010E0101AA
:100710000101036F010100510101016F080E010188
:100720000101026F0101015141EC03F0D00E010102
:100730000101026F070E0101036F1BEC04F09AEC3C
:1007400004F095EC04F098EC04F00101006F000E49
:10075000006E010100510101006F000E056E0101E4
:100760000051000E076E000E086E0101006F000EB2
:10077000016E0101005100F000F000F0FCD70CEF19
:1007800000F0640E010101011F6F000E0101206FD6
:10079000010105C01DF1010101011E6B1EEC02F0FB
:1007A000010101011D51066E0A0E010101011F6FB9
:1007B000000E0101206F0650640DF350055C01012D
:1007C00001011D6FF450D8A0F42801011E6B010136
:1007D0001E5F1EEC02F0010101011D51046E065066
:1007E000640DF350055C01011C6F04500A0DF350B9
:1007F00001011C5D0E6E1200000E8B6E000E946ED9
:10080000000E8A6EF80E936E600ED36E010EC26EED
:100810000101026F0E0EC16E010102510101026F52
:10082000240EC06E010102513E0ED66E000ED76E30
:10083000000EF26E120002C10BF003C10CF00101B8
:10084000046F440ED56E01010451F294200E010193
:100850000101076F000E0101086F02C105F103C11C
:1008600006F186EC01F005C1D6FF06C1D7FF1200E4
:100870000BC01CF10CC01DF1050E01011E6FD890BC
:1008800001011D331C3301011E2FF9D701011C1F6B
:100890001D1F1C4B1D2B1CC1D6FF1DC1D7FFF29481
:1008A0001200010E0424F66EF76A030EF722080008
:1008B000F55001098B6E0A0E056001D001D002D0FF
:1008C0008E0E8B6E1200010E0624F66EF76A030E72
:1008D000F7220800F5CF8BFF0A0E056001D001D08A
:1008E00002D08E0E8B6E1200010E0E24F66EF76A89
:1008F000030EF7220800F5CF8BFF0A0E056001D02A
:1009000001D002D08E0E8B6E1200030EC26E01D08B
:1009100000D0C2B201D001D0FBD79E9CC4CF1CF145
:10092000010101011C5100D01200F28AD58E120083
:08093000D58E1200F28E1200B8
:00000001FF
